:100000000C9435000C945D000C945D000C945D0024
:100010000C945D000C945D000C945D000C94C40481
:100020000C945D000C945D000C945D000C945D00DC
:100030000C945D000C945D000C945D000C945D00CC
:100040000C945D000C945D000C945D000C945D00BC
:100050000C945D000C945D000C945D000C945D00AC
:100060000C945D000C945D00650711241FBECFEF5A
:10007000D8E0DEBFCDBF11E0A0E0B1E0E4EDF3E1F8
:1000800002C005900D92A435B107D9F722E0A4E58E
:10009000B1E001C01D92A936B207E1F710E0C5E357
:1000A000D0E004C02197FE010E946907C433D10744
:1000B000C9F70E945F000C94E8090C940000DF93DC
:1000C000CF93CDB7DEB70E94F00680E090E00E94AB
:1000D000C7089F938F938F919F910E9472000C94F9
:1000E0006F000895DF93CF93E0E0EF93EF93EF93EA
:1000F000CDB7DEB79A83898380E090E09F938F939A
:100100008F919F918F938F918B8380E090E09F934D
:100110008F938F919F918F9380E090E09F938F9327
:100120008F919F918F932F916F91822FA62F8A028B
:100130001F920F920024112480E090E09F938F93F0
:100140002F913F918F919F91820F931F9F938F9338
:1001500080E090E09F938F932F913F918F919F919B
:10016000821B930B9F938F938F919F918F938B8182
:100170008F9361E06F934F916F918F910E9416065C
:100180000E944D0661E06F938F9190E0891711F402
:100190000C9427020E94BC0580912002882319F04C
:1001A00081E00C94D3008F938F918F9390E0891707
:1001B00011F40C94EC008F910E94BC0580911D02FB
:1001C000882319F081E00C94E5008F938F9161E012
:1001D00086278F938F918F938F9190E0891711F4D9
:1001E0000C943E0180E090E09F938F938F919F91BC
:1001F0008F9380E090E09F938F938F919F918F9347
:1002000060E06F934F916F918F910E9416060E944C
:100210004D0680E090E09F938F938F919F918F93F5
:1002200084E090E09F938F938F919F918F9360E0F4
:100230006F934F916F918F910E9416060E944D0609
:1002400087E090E09F938F938F919F918F938F91F1
:100250008B83FA81E981FF93EF9380E090E09F9395
:100260008F938F919F918F938B818F934F916F91EC
:100270008F919F910E942D020C941D020E94BC053B
:1002800080912002882319F081E00C9447018F931C
:100290008F918F9390E0891711F40C945C018F91EA
:1002A0000E94BC0580911D02882319F081E00C9406
:1002B00059018F938F918F938F9190E0891711F44B
:1002C0000C94AE0180E090E09F938F938F919F916B
:1002D0008F9380E090E09F938F938F919F918F9366
:1002E00060E06F934F916F918F910E9416060E946C
:1002F0004D0680E090E09F938F938F919F918F9315
:1003000087E090E09F938F938F919F918F9360E010
:100310006F934F916F918F910E9416060E944D0628
:1003200084E090E09F938F938F919F918F938F9113
:100330008B83FA81E981FF93EF9380E090E09F93B4
:100340008F938F919F918F938B818F934F916F910B
:100350008F919F910E942D020C941D020E94BC055A
:1003600080911F02882319F081E00C94B7018F93CC
:100370008F9190E0891711F40C940A0280E090E0CC
:100380009F938F938F919F918F9387E090E09F939E
:100390008F938F919F918F9360E06F934F916F91A7
:1003A0008F910E9416060E944D0680E090E09F9378
:1003B0008F938F919F918F9384E090E09F938F9381
:1003C0008F919F918F9360E06F934F916F918F9179
:1003D0000E9416060E944D0680E090E09F938F9346
:1003E0008F919F918F938F918B83FA81E981FF93F6
:1003F000EF9380E090E09F938F938F919F918F93E5
:100400008B818F934F916F918F919F910E942D02BD
:100410000C941D02FA81E981FF93EF9380E090E054
:100420009F938F938F919F918F938B818F934F91F8
:100430006F918F919F910E942D0288EE93E09F9380
:100440008F938F919F910E9410070C94C200EF919F
:10045000EF91EF91CF91DF910895DF93CF93E0E09B
:10046000EF93EF93EF93EF93EF93CDB7DEB79A83CC
:1004700089836B834C838B818F938F918D838D8147
:100480008F9388E090E09F938F938F919F918F93AC
:100490002F918F9182171CF080E00C94500281E024
:1004A0008F938F9190E0891711F40C94F9028D814C
:1004B0008F938C818F9361E06F934F916F918F91A8
:1004C0000E9416060E944D0680E090E09F938F9355
:1004D00081E090E09F938F932F913F918F919F9117
:1004E000821B930B9F938F938F919F918F938D81FD
:1004F0008F9381E090E09F938F938F919F918F9343
:100500002F918F9188231CF090E00C9488029FEF2C
:1005100022231CF030E00C948E023FEF821B930BE1
:100520009F938F938F919F918F932F918F9182178C
:100530001CF080E00C949D0281E08F938F9190E0FD
:10054000891711F40C94CF028D818F9381E090E094
:100550009F938F938F919F918F932F918F9188234A
:100560001CF090E00C94B5029FEF22231CF030E0C9
:100570000C94BB023FEF821B930B9F938F938F9141
:100580009F918F938C818F9360E06F934F916F91C8
:100590008F910E9416060E944D060C94CF0280E0B7
:1005A00091E09F938F938F919F910E9410078D816F
:1005B0008F9381E090E09F938F938F919F918F9382
:1005C0002F918F9188231CF090E00C94E8029FEF0C
:1005D00022231CF030E00C94EE023FEF820F931FB9
:1005E0009F938F938F919F918F938F918D830C9475
:1005F0003F0287E090E09F938F938F919F918F931D
:100600008F918D8380E090E09F938F9381E090E0C5
:100610009F938F932F913F918F919F91821B930B6B
:100620009F938F938F919F918F938D818F932F9114
:100630008F9182171CF080E00C941F0381E08F9350
:100640008F918F9390E0891711F40C9453038F913D
:100650008B818F938D818F9381E090E09F938F9317
:100660008F919F918F932F918F9188231CF090E011
:100670000C943B039FEF22231CF030E00C944103C9
:100680003FEF820F931F9F938F938F919F918F9333
:100690002F918F9182171CF080E00C94500381E021
:1006A0008F938F918F938F9190E0891711F40C9411
:1006B000EF038D818F938C818F9361E06F934F91C6
:1006C0006F918F910E9416060E944D068D818F9327
:1006D00081E090E09F938F938F919F918F932F91C3
:1006E0008F9188231CF090E00C9477039FEF2223D6
:1006F0001CF030E00C947D033FEF820F931F9F931B
:100700008F938F919F918F9388E090E09F938F9329
:100710008F919F918F932F918F9182171CF080E082
:100720000C94930381E08F938F9190E0891711F4DB
:100730000C94C5038D818F9381E090E09F938F93FC
:100740008F919F918F932F918F9188231CF090E030
:100750000C94AB039FEF22231CF030E00C94B10308
:100760003FEF820F931F9F938F938F919F918F9352
:100770008C818F9360E06F934F916F918F910E9466
:1007800016060E944D060C94C50380E091E09F93ED
:100790008F938F919F910E9410078D818F9381E09D
:1007A00090E09F938F938F919F918F932F918F9133
:1007B00088231CF090E00C94DE039FEF22231CF0B2
:1007C00030E00C94E4033FEF821B930B9F938F93D5
:1007D0008F919F918F938F918D830C940203EF9152
:1007E000EF91EF91EF91EF91CF91DF910895EDE5CA
:1007F000F1E0119282E0ED31F807D9F70895AC01EC
:1008000010925C018DE591E0909357018093560121
:1008100010925901109258019FEF98B917B82EEF16
:100820002AB92BB98FE384B995B996B19F739F33D9
:1008300019F010925B0103C081E080935B0110927C
:100840005A0110925501109254019BB19C6F9BB9B3
:1008500095B1916195B9CA010E94F70381E08DBD00
:100860001CBC82E08093B0008093B1009AE8909322
:10087000B3008093700078940895CF93DF93E901DB
:10088000E42F88E1689FE00D11248A81AE2FB0E04B
:10089000A35ABE4F8C938981A8E0AE0FB0E0A35A53
:1008A000BE4F8C938881E05FF0E0E35AFE4F808377
:1008B000DF91CF91089588E1689FF0011124E35AF8
:1008C000FE4FE40FF11D8089089588E1689FF001D3
:1008D0001124E35AFE4FE40FF11D8085089588E14D
:1008E000689FF0011124E35AFE4FE40FF11D80814F
:1008F0000895E42F88E1689FE00D1124AE2FB0E049
:10090000A35ABE4F1C92A8E0AE0FB0E0A35ABE4F50
:100910001C92E05FF0E0E35AFE4F1082089586B12A
:1009200080958F730895662379F080915B01882309
:1009300059F081E48093800081E18093810081E01F
:1009400080935A01219A089510925A0110928000C2
:10095000662321F080E88093810002C0109281001C
:100960002198299A0895CF93DF93EA017093890023
:100970006093880061E00E949304D0935501C09376
:100980005401DF91CF9108951F920F920FB60F92ED
:1009900011242F933F938F939F93EF93FF93809115
:1009A00058018F5F8F3018F4809358012AC010923D
:1009B0005801809159018F5F80935901883028F048
:1009C000109259018DE591E005C0809156019091FA
:1009D0005701489690935701809356018091540196
:1009E00090915501009769F001979093550180937C
:1009F0005401892B31F4109280002198299A109289
:100A00008100E0915601F0915701809158019BB10E
:100A10009C6F9BB995B1916195B990E59CBD909102
:100A20005901282F30E0290F311D232B21F49091FB
:100A30005C019EBD01C01EBC9789891710F490E827
:100A400001C090E02689821708F4906425898217F6
:100A500008F490622489821708F490612389821730
:100A600008F498602289821708F49460218982171B
:100A700008F492602089821708F491609EBD9785E2
:100A8000891710F490E801C090E02685821708F4D9
:100A900090642585821708F490622485821708F4F3
:100AA00090612385821708F498602285821708F4E4
:100AB00094602185821708F492602085821708F4DB
:100AC00091609EBD9781891710F490E801C090E075
:100AD0002681821708F490642581821708F49062B9
:100AE0002481821708F490612381821708F49860AA
:100AF0002281821708F494602181821708F49260A1
:100B00002081821708F491600DB407FEFDCF9EBDD1
:100B100080915901882379F0813081F029E030E01B
:100B2000281B310981E090E001C0880F2A95EAF77F
:100B3000809590E005C080E09FEE02C080E09EEFCF
:100B40000DB407FEFDCF2A9A20915901223020F0E2
:100B50009BB189238BB903C085B1892385B92A98B4
:100B60001CBCFF91EF919F918F913F912F910F901E
:100B70000FBE0F901F90189584E692E00E948F049C
:100B8000982F917090932102982F92709093220247
:100B9000982F947090932002982F987090931F0232
:100BA000982F907190931E02982F907290931D022F
:100BB00080932302089584E692E00E948F0490912E
:100BC000230290959823292F217020932102292F09
:100BD000227020932202292F247020932002292F93
:100BE000287020931F02292F207120931E029072DB
:100BF00090931D0280932302089580935C010895D1
:100C0000982F9295892F8C7C282F26952695937363
:100C100034E0939FC0011124822B982F9A7A9695E5
:100C20008575880F892B80935C01089528E0829F49
:100C3000C0011124FC01EC5DFD4FE60FF11D408366
:100C40000895883058F4683048F498E0899FF0019E
:100C50001124EC5DFD4FE60FF11D4083089528E05F
:100C6000829FC0011124FC01EC5DFD4FE60FF11DD8
:100C70008081089544E252E028E080E090E0FA01AB
:100C8000E80FF91F1082019688309105C1F72150B5
:100C9000485F5F4F2111F1CF08950F931F93CF93BA
:100CA00004E212E0C0E0F801278130E0C901880FBA
:100CB000991F280F391F20503F4F47E06C2F84E6C3
:100CC00092E00E943D04F801268130E0C901880FBE
:100CD000991F280F391F20503F4F46E06C2F84E6A4
:100CE00092E00E943D04F801258130E0C901880F9F
:100CF000991F280F391F20503F4F45E06C2F84E685
:100D000092E00E943D04F801248130E0C901880F7F
:100D1000991F280F391F20503F4F44E06C2F84E665
:100D200092E00E943D04F801238130E0C901880F60
:100D3000991F280F391F20503F4F43E06C2F84E646
:100D400092E00E943D04F801228130E0C901880F41
:100D5000991F280F391F20503F4F42E06C2F84E627
:100D600092E00E943D04F801218130E0C901880F22
:100D7000991F280F391F20503F4F41E06C2F84E608
:100D800092E00E943D04F801208130E0C901880F03
:100D9000991F280F391F20503F4F40E06C2F84E6E9
:100DA00092E00E943D04CF5F085F1F4FC83009F0FA
:100DB0007ACFCF911F910F910895AB01BC0184E6CA
:100DC00092E00C94B30490E0FC01EE0FFF1F8E0F35
:100DD0009F1FFC01E050FF4F6083418322830895F1
:100DE000CF93DF931F92CDB7DEB7CE0101960E945D
:100DF000FF0384E692E00E948F048093230240E088
:100E000050E060E070E084E692E00E94B30460E0AD
:100E100084E692E00E9493040F90DF91CF910895B1
:100E20008F929F92AF92BF92CF92DF92EF92FF92FA
:100E3000BC0180E090E00E94A3074B015C0120E030
:100E400030E04AE755E40E9432086B017C0120E063
:100E500030E040E85FE30E946F0787FD24C020E098
:100E60003FEF4FE757E4C701B6010E942D0818165F
:100E7000ACF420E030E040E251E4C501B4010E944E
:100E800032080E94740720E931E06115710581F094
:100E9000C9010197F1F761507109F7CFC701B60198
:100EA0000E94740702C061E070E0CB010197F1F786
:100EB000FF90EF90DF90CF90BF90AF909F908F907A
:100EC000089584E692E00C948F0484E692E00C94FA
:100ED000FF03EE0FFF1F0590F491E02D09940E948F
:100EE000E00708F481E008950E940C0888F09F57FD
:100EF00098F0B92F9927B751B0F0E1F0660F771F3E
:100F0000881F991F1AF0BA95C9F714C0B13091F033
:100F10000E942608B1E008950C942608672F782FC8
:100F20008827B85F39F0B93FCCF3869577956795F8
:100F3000B395D9F73EF490958095709561957F4F64
:100F40008F4F9F4F0895E89409C097FB3EF490950A
:100F50008095709561957F4F8F4F9F4F9923A9F092
:100F6000F92F96E9BB279395F69587957795679521
:100F7000B795F111F8CFFAF4BB0F11F460FF1BC065
:100F80006F5F7F4F8F4F9F4F16C0882311F096E9F8
:100F900011C0772321F09EE8872F762F05C06623A6
:100FA00071F096E8862F70E060E02AF09A95660F5F
:100FB000771F881FDAF7880F9695879597F9089518
:100FC000990F0008550FAA0BE0E8FEEF161617065A
:100FD000E807F907C0F012161306E407F50798F0C2
:100FE000621B730B840B950B39F40A2661F0232BDB
:100FF000242B252B21F408950A2609F4A140A69557
:101000008FEF811D811D089557FD9058440F551F86
:1010100059F05F3F71F04795880F97FB991F61F07A
:101020009F3F79F087950895121613061406551FF1
:10103000F2CF4695F1DF08C0161617061806991F5D
:10104000F1CF86957105610508940895E894BB2752
:1010500066277727CB0197F908950E94E00708F4E7
:101060008FEF08950E9445080C94B6080E94A808C6
:1010700038F00E94AF0820F0952311F00C949F08DF
:101080000C94A50811240C9427080E94040870F3FE
:10109000959FC1F3950F50E0551F629FF001729F1D
:1010A000BB27F00DB11D639FAA27F00DB11DAA1F2C
:1010B000649F6627B00DA11D661F829F2227B00D79
:1010C000A11D621F739FB00DA11D621F839FA00D04
:1010D000611D221F749F3327A00D611D231F849F54
:1010E000600D211D822F762F6A2F11249F575040AB
:1010F0009AF0F1F088234AF0EE0FFF1FBB1F661F26
:10110000771F881F91505040A9F79E3F510580F0EE
:101110000C949F080C9427085F3FE4F3983ED4F3A7
:10112000869577956795B795F795E7959F5FC1F792
:10113000FE2B880F911D9695879597F9089597F93D
:101140009F6780E870E060E008959FEF80EC08956D
:1011500000240A9416161706180609060895002496
:101160000A9412161306140605060895092E039410
:10117000000C11F4882352F0BB0F40F4BF2B11F484
:1011800060FF04C06F5F7F4F8F4F9F4F08950F9395
:101190001F93CF93DF938230910510F482E090E0AB
:1011A000E0916702F091680220E030E0A0E0B0E05A
:1011B000309719F1408151810281138148175907F5
:1011C000C8F08417950769F4109731F012960C93C4
:1011D000129713961C9327C000936702109368021E
:1011E00022C02115310519F04217530718F49A014E
:1011F000BD01EF01DF01F801DBCF21153105F9F069
:10120000281B390B2430310580F48A819B816115BC
:10121000710521F0FB019383828304C090936802DF
:1012200080936702FE01329644C0FE01E20FF31F75
:101230008193919322503109398328833AC02091B8
:10124000650230916602232B41F4209150013091C8
:101250005101309366022093650220914E01309136
:101260004F012115310541F42DB73EB74091520190
:1012700050915301241B350BE0916502F0916602F9
:10128000E217F307A0F42E1B3F0B2817390778F05D
:10129000AC014E5F5F4F2417350748F04E0F5F1FBC
:1012A00050936602409365028193919302C0E0E0FF
:1012B000F0E0CF01DF91CF911F910F910895CF936F
:1012C000DF93009709F481C0FC01329713821282E8
:1012D000A0916702B0916802109781F4208131815A
:1012E000820F931F209165023091660228173907FB
:1012F00051F5F0936602E093650267C0ED0120E0CE
:1013000030E0CE17DF0740F44A815B819E01411532
:101310005105F1F0EA01F5CFD383C28340815181B9
:10132000840F951FC817D90759F488819981840FB4
:10133000951F0296918380838A819B819383828308
:101340002115310529F4F0936802E09367023DC04E
:10135000E901FB83EA8349915991C40FD51FEC172A
:10136000FD0761F480819181840F951F0296E90148
:1013700099838883828193819B838A83E0E0F0E074
:1013800012968D919C911397009719F0FD01DC0145
:10139000F7CF8D919C9111979D012E5F3F4F820F4A
:1013A000931F20916502309166022817390769F46E
:1013B000309729F4109268021092670202C01382DB
:1013C0001282B0936602A0936502DF91CF910895D7
:0413D000F894FFCFBF
:1013D4000000000600000C0500070A00000F0000D2
:1013E4000005080004030F020100000101000101CF
:1013F400000001000003010000010200010F0F0FB3
:1014040000000000000000000000000000000000D8
:1014140000000000000000000000000000000000C8
:0414240069028000D9
:00000001FF
